8=FIX.4.4|9=120|35=D|49=CLIENT1|56=BROKER1|34=1|52=20240102-09:30:00.000|11=ROUND001|55=AAPL|54=1|38=100.123456789012|44=185.123456789012|40=2|59=0|60=20240102-09:30:00.000|10=000
