8=FIX.4.4|9=70|35=A|49=CLIENT1|56=BROKER1|34=1|52=20240102-09:00:00.000|98=0|108=30|10=000
8=FIX.4.4|9=70|35=A|49=BROKER1|56=CLIENT1|34=1|52=20240102-09:00:00.100|98=0|108=30|10=000
8=FIX.4.4|9=120|35=D|49=CLIENT1|56=BROKER1|34=2|52=20240102-09:30:00.000|11=CLORD001|55=AAPL|54=1|38=100|44=185.50|40=2|59=0|60=20240102-09:30:00.000|1=ACCT001|10=000
8=FIX.4.4|9=50|35=0|49=BROKER1|56=CLIENT1|34=2|52=20240102-09:30:15.000|10=000
8=FIX.4.4|9=140|35=8|49=BROKER1|56=CLIENT1|34=3|52=20240102-09:30:00.100|11=CLORD001|37=ORD001|17=EXEC001|150=0|39=0|55=AAPL|54=1|38=100|44=185.50|14=0|151=100|6=0|60=20240102-09:30:00.100|1=ACCT001|10=000
8=FIX.4.4|9=160|35=8|49=BROKER1|56=CLIENT1|34=4|52=20240102-09:31:00.000|11=CLORD001|37=ORD001|17=EXEC002|150=2|39=2|55=AAPL|54=1|38=100|44=185.50|14=100|151=0|31=185.55|32=100|6=185.55|60=20240102-09:31:00.000|10=000
8=FIX.4.4|9=100|35=j|49=BROKER1|56=CLIENT1|34=5|52=20240102-09:32:00.000|45=99|372=D|379=REF001|380=5|58=Unknown order|10=000
8=FIX.4.4|9=60|35=5|49=CLIENT1|56=BROKER1|34=3|52=20240102-17:00:00.000|58=End of day|10=000
8=FIX.4.4|9=50|35=5|49=BROKER1|56=CLIENT1|34=6|52=20240102-17:00:00.100|10=000
