8=FIX.4.4|9=120|35=D|49=CLIENT1|56=BROKER1|34=1|52=20240102-09:30:00.000|11=CLORD001|55=AAPL|54=1|38=100|44=185.50|40=2|59=0|60=20240102-09:30:00.000|1=ACCT001|10=000
8=FIX.4.4|9=140|35=8|49=BROKER1|56=CLIENT1|34=2|52=20240102-09:30:00.100|11=CLORD001|37=ORD001|17=EXEC001|150=0|39=0|55=AAPL|54=1|38=100|44=185.50|14=0|151=100|6=0|60=20240102-09:30:00.100|1=ACCT001|10=000
8=FIX.4.4|9=160|35=8|49=BROKER1|56=CLIENT1|34=3|52=20240102-09:31:00.000|11=CLORD001|37=ORD001|17=EXEC002|150=1|39=1|55=AAPL|54=1|38=100|44=185.50|14=40|151=60|31=185.55|32=40|6=185.55|60=20240102-09:31:00.000|10=000
8=FIX.4.4|9=160|35=8|49=BROKER1|56=CLIENT1|34=4|52=20240102-09:32:00.000|11=CLORD001|37=ORD001|17=EXEC003|150=2|39=2|55=AAPL|54=1|38=100|44=185.50|14=100|151=0|31=185.60|32=60|6=185.575|60=20240102-09:32:00.000|10=000
8=FIX.4.4|9=120|35=D|49=CLIENT1|56=BROKER1|34=5|52=20240102-09:33:00.000|11=CLORD002|55=MSFT|54=2|38=50|44=310.10|40=2|59=1|60=20240102-09:33:00.000|1=ACCT002|10=000
8=FIX.4.4|9=140|35=8|49=BROKER1|56=CLIENT1|34=6|52=20240102-09:33:00.100|11=CLORD002|37=ORD002|17=EXEC004|150=0|39=0|55=MSFT|54=2|38=50|44=310.10|14=0|151=50|60=20240102-09:33:00.100|10=000
8=FIX.4.4|9=100|35=F|49=CLIENT1|56=BROKER1|34=7|52=20240102-09:34:00.000|11=CLORD003|41=CLORD002|37=ORD002|55=MSFT|54=2|38=50|60=20240102-09:34:00.000|10=000
8=FIX.4.4|9=140|35=8|49=BROKER1|56=CLIENT1|34=8|52=20240102-09:34:00.100|11=CLORD003|41=CLORD002|37=ORD002|17=EXEC005|150=4|39=4|55=MSFT|54=2|38=50|14=0|151=0|60=20240102-09:34:00.100|10=000
8=FIX.4.4|9=120|35=D|49=CLIENT1|56=BROKER1|34=9|52=20240102-09:35:00.000|11=CLORD004|55=GOOGL|54=1|38=25|44=140.25|40=2|60=20240102-09:35:00.000|10=000
8=FIX.4.4|9=120|35=8|49=BROKER1|56=CLIENT1|34=10|52=20240102-09:35:00.100|11=CLORD004|37=ORD003|17=EXEC006|150=8|39=8|55=GOOGL|54=1|38=25|44=140.25|103=0|58=Unknown symbol|60=20240102-09:35:00.100|10=000
8=FIX.4.4|9=120|35=G|49=CLIENT1|56=BROKER1|34=11|52=20240102-09:36:00.000|11=CLORD005|41=CLORD001|37=ORD001|55=AAPL|54=1|38=150|44=186.00|60=20240102-09:36:00.000|10=000
8=FIX.4.4|9=100|35=9|49=BROKER1|56=CLIENT1|34=12|52=20240102-09:36:00.100|11=CLORD005|41=CLORD001|37=ORD001|102=0|58=Order already filled|60=20240102-09:36:00.100|10=000
8=FIX.4.4|9=80|35=H|49=CLIENT1|56=BROKER1|34=13|52=20240102-09:37:00.000|11=CLORD001|55=AAPL|54=1|60=20240102-09:37:00.000|10=000
