8=FIX.4.4|9=000|35=D|49=CLIENT1|56=BROKER1|34=1|52=20240102-09:30:00.000|11=CLORD1|55=AAPL|54=1|38=100|44=185.50|60=20240102-09:30:00.000|10=000
8=FIX.4.4|9=000|35=8|49=BROKER1|56=CLIENT1|34=2|52=20240102-09:30:00.100|11=CLORD1|37=ORDER1|17=EXEC1|150=0|39=0|55=AAPL|54=1|38=100|44=185.50|14=0|151=100|60=20240102-09:30:00.100|10=000
8=FIX.4.4|9=000|35=8|49=BROKER1|56=CLIENT1|34=3|52=20240102-09:31:00.000|11=CLORD1|37=ORDER1|17=EXEC2|150=1|39=1|55=AAPL|54=1|38=100|44=185.50|14=40|151=60|31=185.55|32=40|60=20240102-09:31:00.000|10=000
8=FIX.4.4|9=000|35=8|49=BROKER1|56=CLIENT1|34=4|52=20240102-09:32:00.000|11=CLORD1|37=ORDER1|17=EXEC3|150=2|39=2|55=AAPL|54=1|38=100|44=185.50|14=100|151=0|31=185.60|32=60|60=20240102-09:32:00.000|10=000
8=FIX.4.4|9=000|35=D|49=CLIENT1|56=BROKER1|34=5|52=20240102-09:33:00.000|11=CLORD2|55=MSFT|54=2|38=50|44=310.10|60=20240102-09:33:00.000|10=000
8=FIX.4.4|9=000|35=8|49=BROKER1|56=CLIENT1|34=6|52=20240102-09:33:01.000|11=CLORD2|37=ORDER2|17=EXEC4|150=4|39=4|55=MSFT|54=2|38=50|44=310.10|14=0|151=50|60=20240102-09:33:01.000|10=000
