8=FIX.4.4|9=70|35=A|49=CLIENT1|56=BROKER1|34=1|52=20240102-09:00:00.000|98=0|108=30|10=000
8=FIX.4.4|9=70|35=A|49=BROKER1|56=CLIENT1|34=1|52=20240102-09:00:00.100|98=0|108=30|10=000
8=FIX.4.4|9=50|35=0|49=CLIENT1|56=BROKER1|34=2|52=20240102-09:00:30.000|10=000
8=FIX.4.4|9=50|35=0|49=BROKER1|56=CLIENT1|34=2|52=20240102-09:00:30.100|10=000
8=FIX.4.4|9=60|35=1|49=CLIENT1|56=BROKER1|34=3|52=20240102-09:01:00.000|112=TEST1|10=000
8=FIX.4.4|9=60|35=0|49=BROKER1|56=CLIENT1|34=3|52=20240102-09:01:00.100|112=TEST1|10=000
8=FIX.4.4|9=70|35=2|49=CLIENT1|56=BROKER1|34=4|52=20240102-09:02:00.000|7=1|16=3|10=000
8=FIX.4.4|9=60|35=4|49=BROKER1|56=CLIENT1|34=4|52=20240102-09:02:00.100|123=Y|36=5|10=000
8=FIX.4.4|9=80|35=3|49=BROKER1|56=CLIENT1|34=5|52=20240102-09:03:00.000|45=99|373=1|58=Invalid tag number|10=000
8=FIX.4.4|9=100|35=j|49=BROKER1|56=CLIENT1|34=6|52=20240102-09:04:00.000|45=10|372=D|379=REF001|380=5|58=Unknown order|10=000
8=FIX.4.4|9=60|35=5|49=CLIENT1|56=BROKER1|34=5|52=20240102-17:00:00.000|58=End of day|10=000
8=FIX.4.4|9=50|35=5|49=BROKER1|56=CLIENT1|34=7|52=20240102-17:00:00.100|10=000
